{
  "_format": "hh-sol-artifact-1",
  "contractName": "FilecoinCIDStore",
  "sourceName": "contracts/FilecoinCIDStore.sol",
  "abi": [
    {
      "inputs": [],
      "stateMutability": "nonpayable",
      "type": "constructor"
    },
    {
      "inputs": [],
      "name": "ActorNotFound",
      "type": "error"
    },
    {
      "inputs": [],
      "name": "FailToCallActor",
      "type": "error"
    },
    {
      "inputs": [
        {
          "internalType": "uint64",
          "name": "",
          "type": "uint64"
        }
      ],
      "name": "InvalidCodec",
      "type": "error"
    },
    {
      "inputs": [],
      "name": "InvalidResponseLength",
      "type": "error"
    },
    {
      "inputs": [],
      "name": "NegativeValueNotAllowed",
      "type": "error"
    },
    {
      "inputs": [
        {
          "internalType": "uint256",
          "name": "balance",
          "type": "uint256"
        },
        {
          "internalType": "uint256",
          "name": "value",
          "type": "uint256"
        }
      ],
      "name": "NotEnoughBalance",
      "type": "error"
    },
    {
      "anonymous": false,
      "inputs": [
        {
          "indexed": true,
          "internalType": "uint256",
          "name": "content_id",
          "type": "uint256"
        },
        {
          "indexed": true,
          "internalType": "address",
          "name": "buyer",
          "type": "address"
        },
        {
          "indexed": true,
          "internalType": "address",
          "name": "seller",
          "type": "address"
        },
        {
          "indexed": false,
          "internalType": "uint256",
          "name": "price",
          "type": "uint256"
        }
      ],
      "name": "AccessPurchased",
      "type": "event"
    },
    {
      "anonymous": false,
      "inputs": [
        {
          "indexed": true,
          "internalType": "uint256",
          "name": "content_id",
          "type": "uint256"
        },
        {
          "indexed": true,
          "internalType": "address",
          "name": "user",
          "type": "address"
        },
        {
          "indexed": false,
          "internalType": "string",
          "name": "data_cid",
          "type": "string"
        }
      ],
      "name": "CIDRetrieved",
      "type": "event"
    },
    {
      "anonymous": false,
      "inputs": [
        {
          "indexed": true,
          "internalType": "uint256",
          "name": "content_id",
          "type": "uint256"
        },
        {
          "indexed": true,
          "internalType": "address",
          "name": "owner",
          "type": "address"
        },
        {
          "indexed": false,
          "internalType": "bytes",
          "name": "piece_cid",
          "type": "bytes"
        },
        {
          "indexed": false,
          "internalType": "string",
          "name": "data_cid",
          "type": "string"
        },
        {
          "indexed": false,
          "internalType": "uint256",
          "name": "price",
          "type": "uint256"
        },
        {
          "indexed": false,
          "internalType": "string",
          "name": "title",
          "type": "string"
        }
      ],
      "name": "ContentStored",
      "type": "event"
    },
    {
      "anonymous": false,
      "inputs": [
        {
          "indexed": true,
          "internalType": "uint256",
          "name": "content_id",
          "type": "uint256"
        },
        {
          "indexed": false,
          "internalType": "uint64",
          "name": "deal_id",
          "type": "uint64"
        }
      ],
      "name": "DealActivated",
      "type": "event"
    },
    {
      "inputs": [
        {
          "internalType": "uint256",
          "name": "_value",
          "type": "uint256"
        }
      ],
      "name": "addMarketBalance",
      "outputs": [],
      "stateMutability": "nonpayable",
      "type": "function"
    },
    {
      "inputs": [
        {
          "internalType": "uint256",
          "name": "_content_id",
          "type": "uint256"
        }
      ],
      "name": "checkDealActivation",
      "outputs": [
        {
          "internalType": "bool",
          "name": "",
          "type": "bool"
        }
      ],
      "stateMutability": "view",
      "type": "function"
    },
    {
      "inputs": [],
      "name": "getAllActiveContent",
      "outputs": [
        {
          "internalType": "uint256[]",
          "name": "",
          "type": "uint256[]"
        }
      ],
      "stateMutability": "view",
      "type": "function"
    },
    {
      "inputs": [
        {
          "internalType": "uint256",
          "name": "_content_id",
          "type": "uint256"
        }
      ],
      "name": "getCID",
      "outputs": [
        {
          "internalType": "string",
          "name": "",
          "type": "string"
        }
      ],
      "stateMutability": "nonpayable",
      "type": "function"
    },
    {
      "inputs": [
        {
          "internalType": "uint256",
          "name": "_content_id",
          "type": "uint256"
        }
      ],
      "name": "getContentInfo",
      "outputs": [
        {
          "internalType": "string",
          "name": "title",
          "type": "string"
        },
        {
          "internalType": "string",
          "name": "description",
          "type": "string"
        },
        {
          "internalType": "uint256",
          "name": "price",
          "type": "uint256"
        },
        {
          "internalType": "address",
          "name": "owner",
          "type": "address"
        },
        {
          "internalType": "bool",
          "name": "is_active",
          "type": "bool"
        },
        {
          "internalType": "uint256",
          "name": "created_at",
          "type": "uint256"
        },
        {
          "internalType": "uint64",
          "name": "deal_id",
          "type": "uint64"
        },
        {
          "internalType": "uint256",
          "name": "piece_size",
          "type": "uint256"
        },
        {
          "internalType": "bool",
          "name": "user_has_access",
          "type": "bool"
        }
      ],
      "stateMutability": "view",
      "type": "function"
    },
    {
      "inputs": [
        {
          "internalType": "address",
          "name": "_user",
          "type": "address"
        }
      ],
      "name": "getUserOwnedContent",
      "outputs": [
        {
          "internalType": "uint256[]",
          "name": "",
          "type": "uint256[]"
        }
      ],
      "stateMutability": "view",
      "type": "function"
    },
    {
      "inputs": [
        {
          "internalType": "address",
          "name": "_user",
          "type": "address"
        }
      ],
      "name": "getUserPurchasedContent",
      "outputs": [
        {
          "internalType": "uint256[]",
          "name": "",
          "type": "uint256[]"
        }
      ],
      "stateMutability": "view",
      "type": "function"
    },
    {
      "inputs": [
        {
          "internalType": "uint256",
          "name": "_content_id",
          "type": "uint256"
        },
        {
          "internalType": "address",
          "name": "_user",
          "type": "address"
        }
      ],
      "name": "hasAccess",
      "outputs": [
        {
          "internalType": "bool",
          "name": "",
          "type": "bool"
        }
      ],
      "stateMutability": "view",
      "type": "function"
    },
    {
      "inputs": [],
      "name": "next_content_id",
      "outputs": [
        {
          "internalType": "uint256",
          "name": "",
          "type": "uint256"
        }
      ],
      "stateMutability": "view",
      "type": "function"
    },
    {
      "inputs": [
        {
          "internalType": "bytes",
          "name": "",
          "type": "bytes"
        }
      ],
      "name": "piece_cid_to_content",
      "outputs": [
        {
          "internalType": "uint256",
          "name": "",
          "type": "uint256"
        }
      ],
      "stateMutability": "view",
      "type": "function"
    },
    {
      "inputs": [],
      "name": "platform_fee_percentage",
      "outputs": [
        {
          "internalType": "uint256",
          "name": "",
          "type": "uint256"
        }
      ],
      "stateMutability": "view",
      "type": "function"
    },
    {
      "inputs": [],
      "name": "platform_owner",
      "outputs": [
        {
          "internalType": "address",
          "name": "",
          "type": "address"
        }
      ],
      "stateMutability": "view",
      "type": "function"
    },
    {
      "inputs": [
        {
          "internalType": "uint256",
          "name": "_content_id",
          "type": "uint256"
        }
      ],
      "name": "purchaseAccess",
      "outputs": [],
      "stateMutability": "payable",
      "type": "function"
    },
    {
      "inputs": [
        {
          "internalType": "uint256",
          "name": "_fee_percentage",
          "type": "uint256"
        }
      ],
      "name": "setPlatformFee",
      "outputs": [],
      "stateMutability": "nonpayable",
      "type": "function"
    },
    {
      "inputs": [
        {
          "internalType": "bytes",
          "name": "_piece_cid",
          "type": "bytes"
        },
        {
          "internalType": "string",
          "name": "_data_cid",
          "type": "string"
        },
        {
          "internalType": "uint256",
          "name": "_price",
          "type": "uint256"
        },
        {
          "internalType": "string",
          "name": "_title",
          "type": "string"
        },
        {
          "internalType": "string",
          "name": "_description",
          "type": "string"
        },
        {
          "internalType": "uint256",
          "name": "_piece_size",
          "type": "uint256"
        }
      ],
      "name": "storeContent",
      "outputs": [
        {
          "internalType": "uint256",
          "name": "",
          "type": "uint256"
        }
      ],
      "stateMutability": "nonpayable",
      "type": "function"
    },
    {
      "inputs": [
        {
          "internalType": "uint256",
          "name": "",
          "type": "uint256"
        }
      ],
      "name": "stored_content",
      "outputs": [
        {
          "internalType": "bytes",
          "name": "piece_cid",
          "type": "bytes"
        },
        {
          "internalType": "string",
          "name": "data_cid",
          "type": "string"
        },
        {
          "internalType": "uint256",
          "name": "price",
          "type": "uint256"
        },
        {
          "internalType": "address",
          "name": "owner",
          "type": "address"
        },
        {
          "internalType": "string",
          "name": "title",
          "type": "string"
        },
        {
          "internalType": "string",
          "name": "description",
          "type": "string"
        },
        {
          "internalType": "uint256",
          "name": "piece_size",
          "type": "uint256"
        },
        {
          "internalType": "uint64",
          "name": "deal_id",
          "type": "uint64"
        },
        {
          "internalType": "bool",
          "name": "is_active",
          "type": "bool"
        },
        {
          "internalType": "uint256",
          "name": "created_at",
          "type": "uint256"
        },
        {
          "internalType": "uint256",
          "name": "total_earnings",
          "type": "uint256"
        },
        {
          "internalType": "uint256",
          "name": "access_count",
          "type": "uint256"
        }
      ],
      "stateMutability": "view",
      "type": "function"
    },
    {
      "inputs": [
        {
          "internalType": "uint256",
          "name": "_content_id",
          "type": "uint256"
        },
        {
          "internalType": "uint256",
          "name": "_new_price",
          "type": "uint256"
        },
        {
          "internalType": "bool",
          "name": "_is_active",
          "type": "bool"
        }
      ],
      "name": "updateContentStatus",
      "outputs": [],
      "stateMutability": "nonpayable",
      "type": "function"
    },
    {
      "inputs": [
        {
          "internalType": "uint256",
          "name": "_content_id",
          "type": "uint256"
        },
        {
          "internalType": "uint64",
          "name": "_deal_id",
          "type": "uint64"
        }
      ],
      "name": "updateDealStatus",
      "outputs": [],
      "stateMutability": "nonpayable",
      "type": "function"
    },
    {
      "inputs": [
        {
          "internalType": "uint256",
          "name": "",
          "type": "uint256"
        },
        {
          "internalType": "address",
          "name": "",
          "type": "address"
        }
      ],
      "name": "user_access",
      "outputs": [
        {
          "internalType": "bool",
          "name": "has_access",
          "type": "bool"
        },
        {
          "internalType": "uint256",
          "name": "purchased_at",
          "type": "uint256"
        },
        {
          "internalType": "uint256",
          "name": "expires_at",
          "type": "uint256"
        }
      ],
      "stateMutability": "view",
      "type": "function"
    },
    {
      "inputs": [
        {
          "internalType": "address",
          "name": "",
          "type": "address"
        },
        {
          "internalType": "uint256",
          "name": "",
          "type": "uint256"
        }
      ],
      "name": "user_owned_content",
      "outputs": [
        {
          "internalType": "uint256",
          "name": "",
          "type": "uint256"
        }
      ],
      "stateMutability": "view",
      "type": "function"
    },
    {
      "inputs": [
        {
          "internalType": "address",
          "name": "",
          "type": "address"
        },
        {
          "internalType": "uint256",
          "name": "",
          "type": "uint256"
        }
      ],
      "name": "user_purchased_content",
      "outputs": [
        {
          "internalType": "uint256",
          "name": "",
          "type": "uint256"
        }
      ],
      "stateMutability": "view",
      "type": "function"
    },
    {
      "inputs": [
        {
          "internalType": "uint256",
          "name": "_value",
          "type": "uint256"
        }
      ],
      "name": "withdrawMarketBalance",
      "outputs": [
        {
          "internalType": "uint256",
          "name": "",
          "type": "uint256"
        }
      ],
      "stateMutability": "nonpayable",
      "type": "function"
    },
    {
      "inputs": [],
      "name": "withdrawPlatformFees",
      "outputs": [],
      "stateMutability": "nonpayable",
      "type": "function"
    },
    {
      "stateMutability": "payable",
      "type": "receive"
    }
  ],
  "bytecode": "0x60806040526001600555600560075534801561001a57600080fd5b50600680546001600160a01b03191633179055614a878061003c6000396000f3fe6080604052600436106101845760003560e01c806390875975116100d6578063dd12ceff1161007f578063e4847cf211610059578063e4847cf2146104ae578063f096f2c0146104ce578063fdc9eac31461050657600080fd5b8063dd12ceff14610408578063dfd230c814610428578063e45802451461048e57600080fd5b8063b91d0a2f116100b0578063b91d0a2f146103c0578063ced14198146103d3578063d0b7830b146103f357600080fd5b8063908759751461033b578063913a2ffe14610373578063aad68bdc146103a057600080fd5b8063317daae81161013857806367873f421161011257806367873f42146102c6578063692bd51b146102e65780637509c3301461030657600080fd5b8063317daae81461025357806333be97ff146102695780633cdee4c61461029957600080fd5b806312e8e2c31161016957806312e8e2c3146101fb578063162322471461021d57806328d0d85d1461023d57600080fd5b80630adec9511461019057806310799582146101c357600080fd5b3661018b57005b600080fd5b34801561019c57600080fd5b506101b06101ab366004614088565b61051b565b6040519081526020015b60405180910390f35b3480156101cf57600080fd5b506006546101e3906001600160a01b031681565b6040516001600160a01b0390911681526020016101ba565b34801561020757600080fd5b5061021b6102163660046140b2565b61054c565b005b34801561022957600080fd5b5061021b6102383660046140e1565b6105f7565b34801561024957600080fd5b506101b060075481565b34801561025f57600080fd5b506101b060055481565b34801561027557600080fd5b506102896102843660046140b2565b610727565b60405190151581526020016101ba565b3480156102a557600080fd5b506102b96102b4366004614111565b610abc565b6040516101ba919061412c565b3480156102d257600080fd5b5061021b6102e13660046140b2565b610b28565b3480156102f257600080fd5b5061021b610301366004614170565b610be2565b34801561031257600080fd5b506103266103213660046140b2565b610d31565b6040516101ba999897969594939291906141fe565b34801561034757600080fd5b506101b0610356366004614339565b805160208183018101805160048252928201919093012091525481565b34801561037f57600080fd5b5061039361038e3660046140b2565b611118565b6040516101ba919061436e565b3480156103ac57600080fd5b506101b06103bb366004614088565b611486565b61021b6103ce3660046140b2565b6114a2565b3480156103df57600080fd5b506102896103ee366004614381565b611858565b3480156103ff57600080fd5b5061021b611c10565b34801561041457600080fd5b506102b9610423366004614111565b611c9c565b34801561043457600080fd5b50610471610443366004614381565b6001602081815260009384526040808520909152918352912080549181015460029091015460ff9092169183565b6040805193151584526020840192909252908201526060016101ba565b34801561049a57600080fd5b506101b06104a93660046140b2565b611d06565b3480156104ba57600080fd5b506101b06104c93660046143ad565b611e91565b3480156104da57600080fd5b506104ee6104e93660046140b2565b612244565b6040516101ba9c9b9a9998979695949392919061446c565b34801561051257600080fd5b506102b96124dc565b6002602052816000526040600020818154811061053757600080fd5b90600052602060002001600091509150505481565b6006546001600160a01b031633146105a15760405162461bcd60e51b815260206004820152601360248201527227b7363c90383630ba3337b9369037bbb732b960691b60448201526064015b60405180910390fd5b60148111156105f25760405162461bcd60e51b815260206004820152601660248201527f46656520746f6f206869676820286d61782032302529000000000000000000006044820152606401610598565b600755565b60008281526020819052604090206003015482906001600160a01b031633146106625760405162461bcd60e51b815260206004820152601260248201527f4f6e6c7920636f6e74656e74206f776e657200000000000000000000000000006044820152606401610598565b60008267ffffffffffffffff16116106bc5760405162461bcd60e51b815260206004820152600f60248201527f496e76616c6964206465616c20494400000000000000000000000000000000006044820152606401610598565b6000838152602081815260409182902060078101805467ffffffffffffffff191667ffffffffffffffff871690811790915592519283529185917f394af79ec5a12beb5b87a9211e65472b1142c08db3823b84c51df1f4c56d0afc910160405180910390a250505050565b60008160008111801561073b575060055481105b6107805760405162461bcd60e51b815260206004820152601660248201527510dbdb9d195b9d08191bd95cc81b9bdd08195e1a5cdd60521b6044820152606401610598565b600083815260208190526040808220815161018081019092528054829082906107a89061451e565b80601f01602080910402602001604051908101604052809291908181526020018280546107d49061451e565b80156108215780601f106107f657610100808354040283529160200191610821565b820191906000526020600020905b81548152906001019060200180831161080457829003601f168201915b5050505050815260200160018201805461083a9061451e565b80601f01602080910402602001604051908101604052809291908181526020018280546108669061451e565b80156108b35780601f10610888576101008083540402835291602001916108b3565b820191906000526020600020905b81548152906001019060200180831161089657829003601f168201915b50505091835250506002820154602082015260038201546001600160a01b031660408201526004820180546060909201916108ed9061451e565b80601f01602080910402602001604051908101604052809291908181526020018280546109199061451e565b80156109665780601f1061093b57610100808354040283529160200191610966565b820191906000526020600020905b81548152906001019060200180831161094957829003601f168201915b5050505050815260200160058201805461097f9061451e565b80601f01602080910402602001604051908101604052809291908181526020018280546109ab9061451e565b80156109f85780601f106109cd576101008083540402835291602001916109f8565b820191906000526020600020905b8154815290600101906020018083116109db57829003601f168201915b505050918352505060068201546020820152600782015467ffffffffffffffff8082166040840152600160401b90910460ff161515606083015260088301546080830152600983015460a0830152600a9092015460c09091015260e082015191925016600003610a6c576000925050610ab6565b600080610a7c8360e00151612645565b9150915081600014610a945760009450505050610ab6565b6000816000015160070b138015610ab05750602081015160070b155b94505050505b50919050565b6001600160a01b038116600090815260026020908152604091829020805483518184028101840190945280845260609392830182828015610b1c57602002820191906000526020600020905b815481526020019060010190808311610b08575b50505050509050919050565b6006546001600160a01b03163314610b785760405162461bcd60e51b815260206004820152601360248201527227b7363c90383630ba3337b9369037bbb732b960691b6044820152606401610598565b610bdd610bd730604080516020808201835260609182905282519081018352600160fa1b81840152600560f91b604182015292901b6bffffffffffffffffffffffff191660428301528051603681840301815260568301909152815290565b826126cd565b505050565b82600081118015610bf4575060055481105b610c395760405162461bcd60e51b815260206004820152601660248201527510dbdb9d195b9d08191bd95cc81b9bdd08195e1a5cdd60521b6044820152606401610598565b60008481526020819052604090206003015484906001600160a01b03163314610ca45760405162461bcd60e51b815260206004820152601260248201527f4f6e6c7920636f6e74656e74206f776e657200000000000000000000000000006044820152606401610598565b60008411610cf45760405162461bcd60e51b815260206004820152601160248201527f5072696365206d757374206265203e20300000000000000000000000000000006044820152606401610598565b505060009283526020839052604090922060028101919091556007018054911515600160401b0268ff000000000000000019909216919091179055565b606080600080600080600080600089600081118015610d51575060055481105b610d965760405162461bcd60e51b815260206004820152601660248201527510dbdb9d195b9d08191bd95cc81b9bdd08195e1a5cdd60521b6044820152606401610598565b60008b81526020819052604080822081516101808101909252805482908290610dbe9061451e565b80601f0160208091040260200160405190810160405280929190818152602001828054610dea9061451e565b8015610e375780601f10610e0c57610100808354040283529160200191610e37565b820191906000526020600020905b815481529060010190602001808311610e1a57829003601f168201915b50505050508152602001600182018054610e509061451e565b80601f0160208091040260200160405190810160405280929190818152602001828054610e7c9061451e565b8015610ec95780601f10610e9e57610100808354040283529160200191610ec9565b820191906000526020600020905b815481529060010190602001808311610eac57829003601f168201915b50505091835250506002820154602082015260038201546001600160a01b03166040820152600482018054606090920191610f039061451e565b80601f0160208091040260200160405190810160405280929190818152602001828054610f2f9061451e565b8015610f7c5780601f10610f5157610100808354040283529160200191610f7c565b820191906000526020600020905b815481529060010190602001808311610f5f57829003601f168201915b50505050508152602001600582018054610f959061451e565b80601f0160208091040260200160405190810160405280929190818152602001828054610fc19061451e565b801561100e5780601f10610fe35761010080835404028352916020019161100e565b820191906000526020600020905b815481529060010190602001808311610ff157829003601f168201915b505050918352505060068201546020820152600782015467ffffffffffffffff81166040830152600160401b900460ff16151560608083019190915260088301546080830152600983015460a0830152600a9092015460c0909101528101519091506000906001600160a01b03163314806110c9575060008d815260016020908152604080832033845290915290205460ff1680156110c9575060008d81526001602090815260408083203384529091529020600201544211155b905081608001518260a00151836040015184606001518561010001518661012001518760e001518860c00151889b509b509b509b509b509b509b509b509b505050509193959799909294969850565b60608160008111801561112c575060055481105b6111715760405162461bcd60e51b815260206004820152601660248201527510dbdb9d195b9d08191bd95cc81b9bdd08195e1a5cdd60521b6044820152606401610598565b60008381526020819052604090206007810154600160401b900460ff166111da5760405162461bcd60e51b815260206004820152601260248201527f436f6e74656e74206e6f742061637469766500000000000000000000000000006044820152606401610598565b60038101546001600160a01b031633036112c857336001600160a01b0316847ffe6c2a0bc70560c176dc5579ce090c1e46522984ab27a01f53f182e48af348fc8360010160405161122b9190614552565b60405180910390a38060010180546112429061451e565b80601f016020809104026020016040519081016040528092919081815260200182805461126e9061451e565b80156112bb5780601f10611290576101008083540402835291602001916112bb565b820191906000526020600020905b81548152906001019060200180831161129e57829003601f168201915b5050505050925050610ab6565b60008481526001602081815260408084203385528252928390208351606081018552815460ff161515808252938201549281019290925260020154928101929092526113565760405162461bcd60e51b815260206004820152601f60248201527f507572636861736520726571756972656420746f2061636365737320434944006044820152606401610598565b80604001514211156113aa5760405162461bcd60e51b815260206004820152600e60248201527f41636365737320657870697265640000000000000000000000000000000000006044820152606401610598565b336001600160a01b0316857ffe6c2a0bc70560c176dc5579ce090c1e46522984ab27a01f53f182e48af348fc846001016040516113e79190614552565b60405180910390a38160010180546113fe9061451e565b80601f016020809104026020016040519081016040528092919081815260200182805461142a9061451e565b80156114775780601f1061144c57610100808354040283529160200191611477565b820191906000526020600020905b81548152906001019060200180831161145a57829003601f168201915b50505050509350505050919050565b6003602052816000526040600020818154811061053757600080fd5b806000811180156114b4575060055481105b6114f95760405162461bcd60e51b815260206004820152601660248201527510dbdb9d195b9d08191bd95cc81b9bdd08195e1a5cdd60521b6044820152606401610598565b60008281526020819052604090206007810154600160401b900460ff166115625760405162461bcd60e51b815260206004820152601260248201527f436f6e74656e74206e6f742061637469766500000000000000000000000000006044820152606401610598565b80600201543410156115b65760405162461bcd60e51b815260206004820152601460248201527f496e73756666696369656e74207061796d656e740000000000000000000000006044820152606401610598565b60038101546001600160a01b031633036116385760405162461bcd60e51b815260206004820152602160248201527f4f776e65722063616e6e6f74207075726368617365206f776e20636f6e74656e60448201527f74000000000000000000000000000000000000000000000000000000000000006064820152608401610598565b600083815260016020908152604080832033845290915290205460ff16156116a25760405162461bcd60e51b815260206004820152601260248201527f416c7265616479206861732061636365737300000000000000000000000000006044820152606401610598565b60006064600754346116b491906145f3565b6116be9190614620565b905060006116cc8234614634565b90506040518060600160405280600115158152602001428152602001426301e133806116f89190614647565b9052600086815260016020818152604080842033855282528084208551815460ff1916901515178155918501519282019290925592015160029092019190915560098401805434929061174c908490614647565b9091555050600a830180549060006117638361465a565b909155505033600090815260036020818152604080842080546001810182559085529184209091018890559085015490516001600160a01b03909116916108fc841502918491818181858888f193505050501580156117c6573d6000803e3d6000fd5b508115611809576006546040516001600160a01b039091169083156108fc029084906000818181858888f19350505050158015611807573d6000803e3d6000fd5b505b60038301546040513481526001600160a01b0390911690339087907f26e00fd8c1e2f9f49a7dd9112e06891ccb703ef8cade25686cd7c00e73bddf539060200160405180910390a45050505050565b60008260008111801561186c575060055481105b6118b15760405162461bcd60e51b815260206004820152601660248201527510dbdb9d195b9d08191bd95cc81b9bdd08195e1a5cdd60521b6044820152606401610598565b600084815260208190526040808220815161018081019092528054829082906118d99061451e565b80601f01602080910402602001604051908101604052809291908181526020018280546119059061451e565b80156119525780601f1061192757610100808354040283529160200191611952565b820191906000526020600020905b81548152906001019060200180831161193557829003601f168201915b5050505050815260200160018201805461196b9061451e565b80601f01602080910402602001604051908101604052809291908181526020018280546119979061451e565b80156119e45780601f106119b9576101008083540402835291602001916119e4565b820191906000526020600020905b8154815290600101906020018083116119c757829003601f168201915b50505091835250506002820154602082015260038201546001600160a01b03166040820152600482018054606090920191611a1e9061451e565b80601f0160208091040260200160405190810160405280929190818152602001828054611a4a9061451e565b8015611a975780601f10611a6c57610100808354040283529160200191611a97565b820191906000526020600020905b815481529060010190602001808311611a7a57829003601f168201915b50505050508152602001600582018054611ab09061451e565b80601f0160208091040260200160405190810160405280929190818152602001828054611adc9061451e565b8015611b295780601f10611afe57610100808354040283529160200191611b29565b820191906000526020600020905b815481529060010190602001808311611b0c57829003601f168201915b505050918352505060068201546020820152600782015467ffffffffffffffff81166040830152600160401b900460ff16151560608083019190915260088301546080830152600983015460a0830152600a9092015460c0909101528101519091506001600160a01b0390811690851603611ba8576001925050611c09565b60008581526001602081815260408084206001600160a01b03891685528252928390208351606081018552815460ff16158015808352948301549382019390935260029091015493810193909352611c04575080604001514211155b935050505b5092915050565b6006546001600160a01b03163314611c605760405162461bcd60e51b815260206004820152601360248201527227b7363c90383630ba3337b9369037bbb732b960691b6044820152606401610598565b6006546040516001600160a01b03909116904780156108fc02916000818181858888f19350505050158015611c99573d6000803e3d6000fd5b50565b6001600160a01b038116600090815260036020908152604091829020805483518184028101840190945280845260609392830182828015610b1c5760200282019190600052602060002090815481526020019060010190808311610b085750505050509050919050565b6006546000906001600160a01b03163314611d595760405162461bcd60e51b815260206004820152601360248201527227b7363c90383630ba3337b9369037bbb732b960691b6044820152606401610598565b60408051606080820183528183018190528251602081018452600160fa1b81850152600560f91b60418201523090911b6bffffffffffffffffffffffff19166042820152825160368183030181526056820190935291825260009181908152602001611dc485612728565b90529050600080611dd48361276e565b9150915081600014611e285760405162461bcd60e51b815260206004820152600f60248201527f5769746864726177206661696c656400000000000000000000000000000000006044820152606401610598565b600080611e34836127dc565b9150915080611e855760405162461bcd60e51b815260206004820152601160248201527f436f6e76657273696f6e206661696c65640000000000000000000000000000006044820152606401610598565b5093505050505b919050565b600080875111611ee35760405162461bcd60e51b815260206004820152601260248201527f50696563652043494420726571756972656400000000000000000000000000006044820152606401610598565b6000865111611f345760405162461bcd60e51b815260206004820152601160248201527f44617461204349442072657175697265640000000000000000000000000000006044820152606401610598565b60008511611f845760405162461bcd60e51b815260206004820152601160248201527f5072696365206d757374206265203e20300000000000000000000000000000006044820152606401610598565b6000845111611fd55760405162461bcd60e51b815260206004820152600e60248201527f5469746c652072657175697265640000000000000000000000000000000000006044820152606401610598565b600082116120255760405162461bcd60e51b815260206004820152601660248201527f50696563652073697a65206d757374206265203e2030000000000000000000006044820152606401610598565b60058054600091826120368361465a565b9091555060408051610180810182528a815260208082018b90528183018a90523360608301526080820189905260a0820188905260c08201879052600060e083018190526001610100840152426101208401526101408301819052610160830181905284815290819052919091208151929350909181906120b790826146c1565b50602082015160018201906120cc90826146c1565b506040820151600282015560608201516003820180547fffffffffffffffffffffffff0000000000000000000000000000000000000000166001600160a01b039092169190911790556080820151600482019061212990826146c1565b5060a0820151600582019061213e90826146c1565b5060c0820151600682015560e08201516007820180546101008501511515600160401b0268ffffffffffffffffff1990911667ffffffffffffffff909316929092179190911790556101208201516008820155610140820151600982015561016090910151600a90910155336000908152600260209081526040808320805460018101825590845291909220018290555181906004906121df908b90614781565b908152602001604051809103902081905550336001600160a01b0316817fcd812a0d696722931ec25325ae74cbfefb3b88a77aaafc379e52097bd6ba050d8a8a8a8a604051612231949392919061479d565b60405180910390a3979650505050505050565b60006020819052908152604090208054819061225f9061451e565b80601f016020809104026020016040519081016040528092919081815260200182805461228b9061451e565b80156122d85780601f106122ad576101008083540402835291602001916122d8565b820191906000526020600020905b8154815290600101906020018083116122bb57829003601f168201915b5050505050908060010180546122ed9061451e565b80601f01602080910402602001604051908101604052809291908181526020018280546123199061451e565b80156123665780601f1061233b57610100808354040283529160200191612366565b820191906000526020600020905b81548152906001019060200180831161234957829003601f168201915b5050505060028301546003840154600485018054949592946001600160a01b039092169350906123959061451e565b80601f01602080910402602001604051908101604052809291908181526020018280546123c19061451e565b801561240e5780601f106123e35761010080835404028352916020019161240e565b820191906000526020600020905b8154815290600101906020018083116123f157829003601f168201915b5050505050908060050180546124239061451e565b80601f016020809104026020016040519081016040528092919081815260200182805461244f9061451e565b801561249c5780601f106124715761010080835404028352916020019161249c565b820191906000526020600020905b81548152906001019060200180831161247f57829003601f168201915b505050506006830154600784015460088501546009860154600a909601549495929467ffffffffffffffff83169450600160401b90920460ff169290918c565b6060600060016005546124ef9190614634565b67ffffffffffffffff81111561250757612507614274565b604051908082528060200260200182016040528015612530578160200160208202803683370190505b509050600060015b6005548110156125a157600081815260208190526040902060070154600160401b900460ff161561258f5780838381518110612576576125766147e7565b60209081029190910101528161258b8161465a565b9250505b806125998161465a565b915050612538565b5060008167ffffffffffffffff8111156125bd576125bd614274565b6040519080825280602002602001820160405280156125e6578160200160208202803683370190505b50905060005b8281101561263d57838181518110612606576126066147e7565b6020026020010151828281518110612620576126206147e7565b6020908102919091010152806126358161465a565b9150506125ec565b509392505050565b604080518082019091526000808252602082018190529060006126718467ffffffffffffffff16612876565b90506000806126886005639904f2ff6051866128b7565b91509150816000036126ab57600061269f826128e1565b94509450505050915091565b60408051808201909152600080825260208201525b9196919550909350505050565b6000606060006126dc85612945565b90506000806126f66005633105f1a66051868a6000612973565b91509150805160001461271c57604051630e74990760e01b815260040160405180910390fd5b90969095509350505050565b604080518082019091526060815260006020820152600061274a836000612a86565b60408051808201909152815181526020918201511515918101919091529392505050565b604080518082019091526060815260006020820181905290600061279184612ae2565b90506000806127ab60056387ed0a64605186600080612973565b91509150816000036127c257600061269f82612b7c565b6040805180820190915260608152600060208201526126c0565b60008082602001511561281b576040517f83041cea00000000000000000000000000000000000000000000000000000000815260040160405180910390fd5b600061282a6000196000612a86565b9050600061284085600001518660200151612be0565b905061284c8183612c12565b1561285f57506000946001945092505050565b805161286a906147fd565b95600095509350505050565b6060600061288d8367ffffffffffffffff16612c3c565b9050600061289a82612c8a565b90506128a68185612cab565b6128af81612cbb565b949350505050565b60006060612973806128d28888888888600163ffffffff8816565b93509350505094509492505050565b60408051808201909152600080825260208201526000806129028482612d17565b925090506002811461291657612916614821565b6129208483612d94565b60079190910b845291506129348483612d94565b5060070b6020840152509092915050565b606060006129568360000151612da2565b9050600061296382612c8a565b84519091506128a6908290612dba565b6000606061299573fe0000000000000000000000000000000000000585612dd3565b60008073fe000000000000000000000000000000000000058987876129bb5760006129be565b60015b8b8b8f6040516020016129d696959493929190614837565b60408051601f19818403018152908290526129f091614781565b600060405180830381855af49150503d8060008114612a2b576040519150601f19603f3d011682016040523d82523d6000602084013e612a30565b606091505b509150915081612a6c576040517f8a7db5bf00000000000000000000000000000000000000000000000000000000815260040160405180910390fd5b612a7581612e59565b935093505050965096945050505050565b612aac604051806060016040528060608152602001600015158152602001600081525090565b612ad983604051602001612ac291815260200190565b604051602081830303815290604052836000612f45565b90505b92915050565b6060600080612af48460200151613026565b9050612b006002612c3c565b612b0a9083614647565b845151909250612b1990612da2565b612b239083614647565b9150612b2e81612da2565b612b389083614647565b91506000612b4583612c8a565b9050612b52816002613146565b845151612b60908290612dba565b612b6a8183612dba565b612b7381612cbb565b95945050505050565b604080518082019091526060808252600060208301819052835115612bba57612ba58482613152565b8151919350915015612bba576128af82613319565b505060408051600081830181815260608301909352918152602081019190915292915050565b612c06604051806060016040528060608152602001600015158152602001600081525090565b612ad983836000612f45565b600080612c21848460016134a6565b905080600114612c325760006128af565b6001949350505050565b600060178211612c4e57506001919050565b60ff8211612c5e57506002919050565b61ffff8211612c6f57506003919050565b63ffffffff8211612c8257506005919050565b506009919050565b612c9261403c565b8051612c9e90836135e1565b5060006020820152919050565b612cb782600083613658565b5050565b60608160200151600014612d115760405162461bcd60e51b815260206004820152600c60248201527f496e76616c69642043424f5200000000000000000000000000000000000000006044820152606401610598565b50515190565b600080600080612d278686613779565b965090925067ffffffffffffffff16905060ff8216600414612d8b5760405162461bcd60e51b815260206004820152601f60248201527f696e76616c6964206d616a20286578706563746564204d616a417272617929006044820152606401610598565b95939450505050565b6000808061271c858561397c565b60008151612db08351612c3c565b612adc9190614647565b612dc78260028351613658565b8151610bdd9082613a22565b4781811015612e18576040517f8f0f42060000000000000000000000000000000000000000000000000000000081526004810182905260248101839052604401610598565b823f151580612e53576040517f64d954b000000000000000000000000000000000000000000000000000000000815260040160405180910390fd5b50505050565b60006060600080600085806020019051810190612e769190614887565b9194509250905067ffffffffffffffff8216612eb157805115612eac57604051630e74990760e01b815260040160405180910390fd5b612f39565b67ffffffffffffffff821660511480612ed4575067ffffffffffffffff82166071145b15612efb578051600003612eac57604051630e74990760e01b815260040160405180910390fd5b6040517ff1f6bced00000000000000000000000000000000000000000000000000000000815267ffffffffffffffff83166004820152602401610598565b91959194509092505050565b612f6b604051806060016040528060608152602001600015158152602001600081525090565b60208401845160006040516000602084061460018114612f9d57601f8416602090810380860184528301019250612fa7565b6020820192508382525b50600060208201528282848660046101c2fa5060208151018101604052805193505b60208414612ff55760208101511560018114612fe55750612ff5565b50601f1990930192602001612fc9565b9283525050815260208101839052811561300f578161301a565b805161301a90613a43565b60408201529392505050565b80515160609060009061303a906001614647565b67ffffffffffffffff81111561305257613052614274565b6040519080825280601f01601f19166020018201604052801561307c576020820181803683370190505b50905082602001511515600115151461309657600061309c565b600160f81b5b816000815181106130af576130af6147e7565b60200101906001600160f81b031916908160001a905350600160005b84515181101561313d5784518051829081106130e9576130e96147e7565b602001015160f81c60f81b838381518110613106576131066147e7565b60200101906001600160f81b031916908160001a905350816131278161465a565b92505080806131359061465a565b9150506130cb565b50909392505050565b612cb782600483613a7b565b606060008060006131638686613779565b965090925067ffffffffffffffff16905060ff821660061480613189575060ff82166002145b6131fb5760405162461bcd60e51b815260206004820152602e60248201527f696e76616c6964206d616a20286578706563746564204d616a546167206f722060448201527f4d616a42797465537472696e67290000000000000000000000000000000000006064820152608401610598565b60051960ff831601613235576132118686613779565b965090925067ffffffffffffffff16905060ff821660021461323557613235614821565b60006132418287614647565b905060008267ffffffffffffffff81111561325e5761325e614274565b6040519080825280601f01601f191660200182016040528015613288576020820181803683370190505b5090506000875b838110156132fd578981815181106132a9576132a96147e7565b602001015160f81c60f81b8383815181106132c6576132c66147e7565b60200101906001600160f81b031916908160001a905350816132e78161465a565b92505080806132f59061465a565b91505061328f565b5081613309858a614647565b9650965050505050509250929050565b6040805180820190915260608152600060208201528151600003613362575050604080516080810182526001918101918252600060608201819052918152602081019190915290565b6000600183516133729190614634565b67ffffffffffffffff81111561338a5761338a614274565b6040519080825280601f01601f1916602001820160405280156133b4576020820181803683370190505b5090506000836000815181106133cc576133cc6147e7565b01602001517fff0000000000000000000000000000000000000000000000000000000000000016600160f81b03613401575060015b60015b845181101561348b5784818151811061341f5761341f6147e7565b01602001517fff000000000000000000000000000000000000000000000000000000000000001683613452600184614634565b81518110613462576134626147e7565b60200101906001600160f81b031916908160001a905350806134838161465a565b915050613404565b50604080518082019091529182521515602082015292915050565b60006001821561351f57846020015180156134c2575083602001515b156134d0575060001961351f565b60208501511580156134e85750602084015115156001145b156134f75760019150506135da565b60208501511515600114801561350f57506020840151155b1561351f576000199150506135da565b8360400151856040015111156135365790506135da565b84604001518460400151111561355a576135528160001961491d565b9150506135da565b84518051855160209283019201906000908190815b818110156135ce578086015193508085015192508284111561359a57869750505050505050506135da565b838311156135bc576135ae8760001961491d565b9750505050505050506135da565b6135c7602082614647565b905061356f565b50600096505050505050505b9392505050565b60408051808201909152606081526000602082015261360160208361494d565b156136295761361160208361494d565b61361c906020614634565b6136269083614647565b91505b60208084018390526040518085526000815290818401018181101561364d57600080fd5b604052509192915050565b60178167ffffffffffffffff161161367f578251612e539060e0600585901b168317613a86565b60ff8167ffffffffffffffff16116136c15782516136a8906018611fe0600586901b1617613a86565b508251612e539067ffffffffffffffff83166001613aef565b61ffff8167ffffffffffffffff16116137045782516136eb906019611fe0600586901b1617613a86565b508251612e539067ffffffffffffffff83166002613aef565b63ffffffff8167ffffffffffffffff161161374957825161373090601a611fe0600586901b1617613a86565b508251612e539067ffffffffffffffff83166004613aef565b825161376090601b611fe0600586901b1617613a86565b508251612e539067ffffffffffffffff83166008613aef565b6000806000806137898686613b74565b9050613796600186614647565b94506007600582901c16601f8216601c811061381a5760405162461bcd60e51b815260206004820152602560248201527f63616e6e6f742068616e646c652068656164657273207769746820657874726160448201527f203e2032370000000000000000000000000000000000000000000000000000006064820152608401610598565b60188160ff1610156138385790945060ff1692508491506139759050565b8060ff166018036138c557600061384f8989613b74565b905061385c600189614647565b975060188160ff1610156138b25760405162461bcd60e51b815260206004820152600c60248201527f696e76616c69642063626f7200000000000000000000000000000000000000006044820152606401610598565b9195505060ff1692508491506139759050565b8060ff166019036138ff5760006138dc8989613bea565b90506138e9600289614647565b97509195505061ffff1692508491506139759050565b8060ff16601a0361393b5760006139168989613c4a565b9050613923600489614647565b97509195505063ffffffff1692508491506139759050565b8060ff16601b1461394e5761394e614821565b600061395a8989613caa565b9050613967600889614647565b975091955090935085925050505b9250925092565b60008060008061398c8686613779565b965090925067ffffffffffffffff16905060ff8216600114806139b0575060ff8216155b612d8b5760405162461bcd60e51b815260206004820152603560248201527f696e76616c6964206d616a20286578706563746564204d616a5369676e65644960448201527f6e74206f72204d616a556e7369676e6564496e742900000000000000000000006064820152608401610598565b604080518082019091526060815260006020820152612ad983838451613d0a565b6000613a4e82613ddb565b15613a5b57506000919050565b6020820151613a6981613e24565b9251601f190160080290920192915050565b610bdd838383613658565b6040805180820190915260608152600060208201528251516000613aab826001614647565b905084602001518210613acc57613acc85613ac78360026145f3565b614025565b8451602083820101858153508051821115613ae5578181525b5093949350505050565b6040805180820190915260608152600060208201528351516000613b138285614647565b90508560200151811115613b3057613b3086613ac78360026145f3565b60006001613b4086610100614a45565b613b4a9190614634565b90508651828101878319825116178152508051831115613b68578281525b50959695505050505050565b6000613b81826001614647565b83511015613bc85760405162461bcd60e51b8152602060048201526014602482015273736c6963696e67206f7574206f662072616e676560601b6044820152606401610598565b828281518110613bda57613bda6147e7565b016020015160f81c905092915050565b6000613bf7826002614647565b83511015613c3e5760405162461bcd60e51b8152602060048201526014602482015273736c6963696e67206f7574206f662072616e676560601b6044820152606401610598565b50016020015160f01c90565b6000613c57826004614647565b83511015613c9e5760405162461bcd60e51b8152602060048201526014602482015273736c6963696e67206f7574206f662072616e676560601b6044820152606401610598565b50016020015160e01c90565b6000613cb7826008614647565b83511015613cfe5760405162461bcd60e51b8152602060048201526014602482015273736c6963696e67206f7574206f662072616e676560601b6044820152606401610598565b50016020015160c01c90565b6040805180820190915260608152600060208201528251821115613d2d57600080fd5b8351516000613d3c8483614647565b90508560200151811115613d5957613d5986613ac78360026145f3565b855180518382016020019160009180851115613d73578482525b505050602086015b60208610613db35780518252613d92602083614647565b9150613d9f602082614647565b9050613dac602087614634565b9550613d7b565b51815160001960208890036101000a0190811690199190911617905250849150509392505050565b60008060208301815b8451811015613e1957815192508215613e0257506000949350505050565b602091820191613e129082614647565b9050613de4565b506001949350505050565b600081156001811461401c57604080517ff8f9cbfae6cc78fbefe7cdc3a1793dfcf4f0e8bbd8cec470b6a28a7a5a3e1efd81527ff5ecf1b3e9debc68e1d9cfabc5997135bfb7a7a3938b7b606b5b4b3f2f1f0ffe60208201527ff6e4ed9ff2d6b458eadcdf97bd91692de2d4da8fd2d0ac50c6ae9a8272523616818301527fc8c0b887b0a8a4489c948c7f847c6125746c645c544c444038302820181008ff60608201527ff7cae577eec2a03cf3bad76fb589591debb2dd67e0aa9834bea6925f6a4a2e0e60808201527fe39ed557db96902cd38ed14fad815115c786af479b7e8324736353433727170760a08201527fc976c13bb96e881cb166a933a55e490d9d56952b8d4e801485467d236242260660c08201527f753a6d1b65325d0c552a4d1345224105391a310b29122104190a11030902010060e0820152610100818101909252600160f81b7e818283848586878898a8b8c8d8e8f929395969799a9b9d9e9faaeb6bedeeff700100000000000000000000000000000000600160401b640100000000620100006010600460026000198e0190810481179182049091179182049091178981041791820490911791820490911791820490911791820490911760010191820283900460ff03909301519096600160ff1b81119094029190040193508116614016576001830192505b50610ab6565b50600092915050565b815161403183836135e1565b50612e538382613a22565b6040518060400160405280614064604051806040016040528060608152602001600081525090565b8152602001600081525090565b80356001600160a01b0381168114611e8c57600080fd5b6000806040838503121561409b57600080fd5b6140a483614071565b946020939093013593505050565b6000602082840312156140c457600080fd5b5035919050565b67ffffffffffffffff81168114611c9957600080fd5b600080604083850312156140f457600080fd5b823591506020830135614106816140cb565b809150509250929050565b60006020828403121561412357600080fd5b612ad982614071565b6020808252825182820181905260009190848201906040850190845b8181101561416457835183529284019291840191600101614148565b50909695505050505050565b60008060006060848603121561418557600080fd5b8335925060208401359150604084013580151581146141a357600080fd5b809150509250925092565b60005b838110156141c95781810151838201526020016141b1565b50506000910152565b600081518084526141ea8160208601602086016141ae565b601f01601f19169290920160200192915050565b60006101208083526142128184018d6141d2565b90508281036020840152614226818c6141d2565b604084019a909a5250506001600160a01b03969096166060870152931515608086015260a085019290925267ffffffffffffffff1660c084015260e083015215156101009091015292915050565b634e487b7160e01b600052604160045260246000fd5b604051601f8201601f1916810167ffffffffffffffff811182821017156142b3576142b3614274565b604052919050565b600067ffffffffffffffff8211156142d5576142d5614274565b50601f01601f191660200190565b600082601f8301126142f457600080fd5b8135614307614302826142bb565b61428a565b81815284602083860101111561431c57600080fd5b816020850160208301376000918101602001919091529392505050565b60006020828403121561434b57600080fd5b813567ffffffffffffffff81111561436257600080fd5b6128af848285016142e3565b602081526000612ad960208301846141d2565b6000806040838503121561439457600080fd5b823591506143a460208401614071565b90509250929050565b60008060008060008060c087890312156143c657600080fd5b863567ffffffffffffffff808211156143de57600080fd5b6143ea8a838b016142e3565b9750602089013591508082111561440057600080fd5b61440c8a838b016142e3565b965060408901359550606089013591508082111561442957600080fd5b6144358a838b016142e3565b9450608089013591508082111561444b57600080fd5b5061445889828a016142e3565b92505060a087013590509295509295509295565b6101808152600061448161018083018f6141d2565b8281036020840152614493818f6141d2565b90508c60408401526001600160a01b038c16606084015282810360808401526144bc818c6141d2565b905082810360a08401526144d0818b6141d2565b9150508760c083015267ffffffffffffffff871660e08301526144f861010083018715159052565b8461012083015283610140830152826101608301529d9c50505050505050505050505050565b600181811c9082168061453257607f821691505b602082108103610ab657634e487b7160e01b600052602260045260246000fd5b60006020808352600084546145668161451e565b8084870152604060018084166000811461458757600181146145a1576145cf565b60ff1985168984015283151560051b8901830195506145cf565b896000528660002060005b858110156145c75781548b82018601529083019088016145ac565b8a0184019650505b509398975050505050505050565b634e487b7160e01b600052601160045260246000fd5b8082028115828204841417612adc57612adc6145dd565b634e487b7160e01b600052601260045260246000fd5b60008261462f5761462f61460a565b500490565b81810381811115612adc57612adc6145dd565b80820180821115612adc57612adc6145dd565b60006001820161466c5761466c6145dd565b5060010190565b601f821115610bdd57600081815260208120601f850160051c8101602086101561469a5750805b601f850160051c820191505b818110156146b9578281556001016146a6565b505050505050565b815167ffffffffffffffff8111156146db576146db614274565b6146ef816146e9845461451e565b84614673565b602080601f831160018114614724576000841561470c5750858301515b600019600386901b1c1916600185901b1785556146b9565b600085815260208120601f198616915b8281101561475357888601518255948401946001909101908401614734565b50858210156147715787850151600019600388901b60f8161c191681555b5050505050600190811b01905550565b600082516147938184602087016141ae565b9190910192915050565b6080815260006147b060808301876141d2565b82810360208401526147c281876141d2565b905084604084015282810360608401526147dc81856141d2565b979650505050505050565b634e487b7160e01b600052603260045260246000fd5b80516020808301519190811015610ab65760001960209190910360031b1b16919050565b634e487b7160e01b600052600160045260246000fd5b600067ffffffffffffffff80891683528760208401528087166040840152808616606084015260c0608084015261487160c08401866141d2565b915080841660a084015250979650505050505050565b60008060006060848603121561489c57600080fd5b8351925060208401516148ae816140cb565b604085015190925067ffffffffffffffff8111156148cb57600080fd5b8401601f810186136148dc57600080fd5b80516148ea614302826142bb565b8181528760208385010111156148ff57600080fd5b6149108260208301602086016141ae565b8093505050509250925092565b80820260008212600160ff1b84141615614939576149396145dd565b8181058314821517612adc57612adc6145dd565b60008261495c5761495c61460a565b500690565b600181815b8085111561499c578160001904821115614982576149826145dd565b8085161561498f57918102915b93841c9390800290614966565b509250929050565b6000826149b357506001612adc565b816149c057506000612adc565b81600181146149d657600281146149e0576149fc565b6001915050612adc565b60ff8411156149f1576149f16145dd565b50506001821b612adc565b5060208310610133831016604e8410600b8410161715614a1f575081810a612adc565b614a298383614961565b8060001904821115614a3d57614a3d6145dd565b029392505050565b6000612ad983836149a456fea26469706673582212204e46a57181c649f8df385366b853adcc214c9b69bcc5306cbf09c005c0b2bf1264736f6c63430008140033",
  "linkReferences": {},
  "deployedLinkReferences": {}
}